:020000040800F2
:10400000380D0020F5420008D15C0008D15A0008A4
:10401000855C0008A9580008F5640008000000004D
:1040200000000000000000000000000099420008AD
:10403000F558000800000000AD42000801620008C9
:104040000F4300080F4300080F430008E160000819
:104050000F4300080F430008795900080F43000878
:104060000F4300080F4300080F4300080F430008E8
:104070000F4300080F4300080F4300080F430008D8
:104080000F4300080F4300080F4300080F430008C8
:104090000F4300080F4300080F4300080F430008B8
:1040A0000F4300080F4300080F4300080F430008A8
:1040B0000F4300080F4300080F4300080F43000898
:1040C0000F4300080F4300080F4300080F43000888
:1040D0000F430008C9620008E56200080F430008AA
:1040E0000F4300080F4300080F4300080F43000868
:1040F0000F4300080F4300080F4300080F43000858
:104100000F4300080F4300080F4300080F43000847
:104110000F4300080F4300080F4300080F43000837
:104120000F4300080F4300080F4300080F43000827
:1041300000F002F800F090F80AA090E8000C824429
:104140008344AAF10107DA4501D100F085F8AFF206
:10415000090EBAE80F0013F0010F18BFFB1A43F065
:1041600001031847D4280000F4280000103A24BFA7
:1041700078C878C1FAD8520724BF30C830C144BFCC
:1041800004680C607047000000230024002500260E
:10419000103A28BF78C1FBD8520728BF30C148BFAA
:1041A0000B6070476E2900F09D82702900F0E78354
:1041B000662902F0D383652902F0D083672902F0D3
:1041C000CD836129AFF3008003681B0A28BF41F04B
:1041D0008001692900F0C880642900F0C580752934
:1041E00000F0C2806F2900F07583782900F0B38356
:1041F000E92900F00F83E42900F00C83F52900F091
:104200000983EF2900F07283F82900F0B283036874
:10421000DB0928BF41F08001632900F02386732960
:1042200000F02886E32900F03386F32900F0388671
:10423000002070471FB500F07DFE04000020002123
:1042400002F060FB401C60600020002102F070FB67
:10425000E0601FBD10B510BD00F047FE1146FFF72E
:10426000E9FF02F05DFA00F017FF03B4FFF7F2FF79
:1042700003BC00F017FF0000EFF30980704780F3E4
:1042800009887047EFF30880704780F3088870470B
:1042900040BA7047C0BA70471EF0040F0CBFEFF36E
:1042A0000880EFF3098001F01CBF0000EFF30980E4
:1042B0004FF004044FF005054FF006064FF00707D6
:1042C00020E9F00F08490A68084B4FEA820298502B
:1042D000074C24680C604FEA84041859B0E8F00FCA
:1042E00080F30988704700002C000020480400205B
:1042F000300000200948804709480047FEE7FEE7F4
:10430000FEE7FEE7FEE7FEE7FEE7FEE7FEE7FEE785
:1043100004480549054A064B7047000069620008D9
:104320003141000838050020380D002038090020F0
:10433000380900207CB51D4616460C00009001D0BF
:104340002044401E074B7B442A4669460190304674
:1043500000F0E1F905461CB10020694600F0EEF9D5
:1043600028467CBDFD0300002DE9F04106460024EF
:1043700010687529314616A510D000F01FF90028E5
:1043800002DA404213A507E031688A0701D512A579
:1043900002E0490704D511A5012401E000F017F956
:1043A00000210A2206F1240709E0B0FBF2FCB0FB71
:1043B000F2F302FB1C00303078541846491C0028E8
:1043C000F3D123462A463046BDE8F04100F031B92A
:1043D000000000002D0000002B0000002000000065
:1043E0002DE9F05F894604464FF0000ADFF874B10A
:1043F000FB44C0F820A02046E1688847002874D01C
:10440000252806D0D4E901219047206A401C20626B
:10441000F1E700265F462046E168884720280546E8
:1044200007DB312D05D2781910F8200C08B10643AE
:10443000F1E7B00701D526F00406C4F81CA0002758
:10444000C4F818A02A2D09D0284602F061F938B323
:1044500004EB8708303DC8F8185019E059F8041BE0
:10446000204604EB87029161E1688847012F0546E9
:1044700018D1E069002820DA26F020061DE0D8F8DF
:10448000180000EB800005EB40003038C8F8180039
:104490002046E1688847054602F03AF90028EED147
:1044A000012F0AD02E2D08D12046E16888477F1CB5
:1044B0000546022F46F02006C4DBA069002803DA77
:1044C000404246F00106A061F00701D026F0100638
:1044D0006C2D0BD0682D09D04C2D39D06A2D35D0DC
:1044E000742D35D07A2D33D016E038E0E1682F46B0
:1044F00020468847B842054609D16C2F26D04FF494
:104500008060E168064320468847054604E06C2F3A
:104510001AD04FF4807006430DB3A5F1410019285D
:1045200002D8203546F400664A46294620462660D1
:104530004E46FFF737FE80B101280BD0F61D26F05E
:10454000070000F1080956E74020E4E78020D8E79B
:104550000020D6E706F104094DE7284652E7206A15
:10456000BDE8F09F6C25000070477047704770B53C
:10457000044685690068C10601D5302600E0202682
:10458000C00707D070BDD4E9012130469047206AAA
:10459000401C20626D1EF6D570BD70B5044685695D
:1045A0000078C00707D170BDD4E9012120209047D1
:1045B000206A401C20626D1EF6D570BD09684A0550
:1045C00001D540B27047C905FCD500B270470968F3
:1045D0004A0501D5C0B27047C905FCD580B2704705
:1045E00070B50C460546012A05D02878800600D50E
:1045F000EA69002302E0012305E05B1C934202D23A
:10460000E05C0028F9D1A869E618C01AA861286AF8
:10461000184428622846FFF7AAFF04E0D5E90121E3
:1046200014F8010B9047B442F8D32846FFF7B5FFC2
:1046300070BD2DE9F0470D4699469246044600F1BB
:1046400024080168880604D5E06921F01001216082
:1046500000E00120A84201DD471B00E00027A1691E
:104660007A1902EB0900081AA0612078C00602D46A
:104670002046FFF77CFF002608E0D4E901211AF864
:1046800006009047206A401C761C20624E45F4DBF1
:104690002078C0060AD52046FFF769FF06E0D4E976
:1046A000012130209047206A401C2062381EA7F16B
:1046B0000107F4DC07E0D4E9012118F80500904770
:1046C000206A401C2062281EA5F10105F3DC20466B
:1046D000FFF763FF2078000602D50220BDE8F087CF
:1046E0000120FBE711680268006A530501D50870D4
:1046F0000AE0D30501D5088006E0130603D5C217EA
:10470000C1E9000200E008600120704701694A1C0D
:1047100002610878704700B58FB0CDE90131002102
:10472000059105497944CDE9031011466846FFF724
:1047300057FE0FB000BD0000E5FFFFFF0A6802F85A
:10474000010B0A607047D1E900239A4202D2531C40
:104750000B601070704700002DE9FF5F15468A4618
:104760000446DFF8AC80F8440027D8E900103E4644
:10477000CDE9001010E03AF816106A4602A800F0E1
:1047800093FB411C07D02178890603D5E2693918CB
:1047900091420DD80744761C2078800602D5E06946
:1047A000B84205DDAE42E6DB3AF816000028E2D159
:1047B000A069C01BA0612046FFF7D9FED8E9001010
:1047C000CDE90010002017E03AF818106A4602A858
:1047D00000F06AFBB0F1FF3F81460BD000250DF1E0
:1047E000080B05E0D4E901211BF8050090476D1C7A
:1047F0004D45F7D308F10100B0428046E4DB206A62
:10480000384420622046FFF7C8FEBDE8FF9F000045
:104810000A2200002DE9F0418046D21D22F0070255
:104820000025D2E90002F52915A614D0011E72F167
:10483000000106DA0023D0EB030063EB020211A6AD
:1048400008E0D8F800108B0701D50FA602E0490751
:1048500001D50EA601251146002408F1240704E025
:1048600000F0A4F830323A55641C50EA0102F7D146
:104870002B46324621464046BDE8F041FFF7D9BEFF
:10488000000000002D0000002B00000020000000B0
:1048900030B4002100F1240408E002F00705D2083A
:1048A000303542EA4372DB086554491C52EA03057D
:1048B000F3D10468002310A2250708D504F02004D2
:1048C0000C4304D0C46901230CA2641EC46130BC33
:1048D000FFF7AFBE10B5044621461068FFF777FE1C
:1048E00002462046BDE810400023D1E7D21D22F049
:1048F0000701D1E90023CBE70000000030000000F1
:10490000F0B40D460188090502D5214C7C4402E033
:104910001F4C7C440E34002100F1240608E002F014
:104920000F071209E75D42EA03721B097754491C1D
:1049300052EA0307F3D102780023120704D5702D41
:1049400006D009B1022311342246F0BCFFF771BE34
:1049500001231034F8E770B504460D46214610686F
:10496000FFF735FE024629462046BDE87040002389
:10497000C6E7D21D22F00703D3E90023C0E703688E
:10498000126843F0200303600823C3610023B7E7E4
:104990006C20000000487047D804002010B500F0DB
:1049A000C9FA001D10BD00BF5D1F000030B5B0F199
:1049B0000A024FEA900E71F100034EEA817EB0EBDD
:1049C0000E0061EB91014FEA101E4EEA017E10EBE2
:1049D0000E0041EB11114FEA102E4EEA016E10EB62
:1049E0000E0041EB11214FEA104E4EEA014E10EB42
:1049F0000E0041EB1141401841F100014FEAD00097
:104A000040EA41704FEAD10110EB80054FEA810482
:104A100044EA907444EB01046D1944EB0404521B06
:104A2000A3414FF0000348BF0A3200D530BD401CFF
:104A300041F1000130BD70472DE9FF4F0C461E4685
:104A40004FF0FF378BB0D2E90001DDF860800A90AB
:104A50008A46C1F30A5505B93D46002108464FF084
:104A60000000BAF1000F00F4400005DA00EB80000E
:104A70004FF4400101EA50004FEA9059B9F1010F9B
:104A800000DDB9460A9850EA4A000ED044F61050AC
:104A9000A5F2FF3545432F14B8F1000F1ED0754223
:104AA000291E1EDDC9F100021CE0B8F1010F4FF014
:104AB000000001D0302103E0F24305E02154401C06
:104AC000B042FBDB30460022002121540B99C1F893
:104AD0000880C1E900200FB0BDE8F08FBD1B6D1C40
:104AE000DEE74A4600DA694206A800F067FA06AB3C
:104AF00093E8070003AB83E8070050460A9900F0EB
:104B000017FB8DE80700A0F500501F3800900398B0
:104B1000002D09DD42F21F014A46084403A9039013
:104B2000684600F076FD08E0A0F500504A461F38C0
:104B300003A90390684600F080FD8DE8070000049B
:104B4000000C03D04FF0FF30410800E01046B8F1F0
:104B5000000F03D00022009215461EE0751E05D4FA
:104B6000FFF724FF303262556D1EF9D5B34601229E
:104B7000084302D000227F1C04E02078302801D1B5
:104B800000227F1E002A099786D01DE0112D07DA2A
:104B9000FFF70CFF303262556D1C50EA0102F5D16F
:104BA000084302D00098C8B10EE00021681E05E05D
:104BB000235C625C63542254401E491C8142F7DB33
:104BC000AB46A81B401E0990002004F80B000B9870
:104BD000099AC0F80880C0E9002B7CE711264FF045
:104BE000000859E72DE9F04F88460446D21D22F00F
:104BF000070191B0D1E90001CDE90A0101F074FD8E
:104C000002460B98C00F01D02D2007E020688107D5
:104C100001D52B2002E0202101EAC000032A0990DF
:104C200001D0072A05DB03464146204600F086F9FD
:104C30000BE12078800601D5E06900E00620B8F19C
:104C4000650F814606D0B8F1660F18D0B8F1670F2E
:104C500070D131E00020B9F1110F009001DB112378
:104C600001E009F101030AAA01A90CA8FFF7E4FE7B
:104C7000DDE90C70002609F10105834647E00120BB
:104C80004B4600904FF000470AAA01A90CA8FFF775
:104C9000D3FEDDE90DB00C995D46002610B909F18F
:104CA00001000D18B9EB050003D4C0F1FF3609F17E
:104CB0000105A5EB09002BE0B9F1010F01DA4FF076
:104CC00001090020B9F1110F0090484601DD1123C0
:104CD00000E003460AAA01A90CA8FFF7ADFEDDE932
:104CE0000C704D4600268346207800070AD4AB4559
:104CF00000DA5D4601A8012D04DD411911F8011CFF
:104D0000302907D04F4502DA17F1040F04DA0120E9
:104D100082460FE06D1EEEE7002F02DCED1B3E44E5
:104D200003E0781CA84200DD7D1CB81B00F1010ADD
:104D30004FF000472078000703D4AA4501DB4FF06D
:104D4000FF3A0021B7F1004F0DF143088DF84310F1
:104D500024D002202B23002F01DA7F422D230A21A9
:104D6000021EA0F1010000DC5FB197FBF1FC97FB94
:104D7000F1F201FB1C7C17460CF1300C08F801CD58
:104D8000EEE7A8F1010003702188090501D545214E
:104D900000E06521A0F1010800F8011C09980FA9A5
:104DA000A1EB0807FF1D00B10120411901EBEA70DA
:104DB000A1693844081A401EA0612078C00602D4B8
:104DC0002046FFF7D4FB099828B1D4E90121904788
:104DD000206A401C20622078C00622D52046FFF7BA
:104DE000C6FB1EE0002E04DBB34502DD01A8805D9A
:104DF00000E03020D4E901219047206A401C206265
:104E0000761CAAF101005FEA000A0AD100F092F8CC
:104E1000C0680168405CD4E901219047206A401CC9
:104E20002062281EA5F10105DCDC07E0D4E90121A0
:104E300018F8010B9047206A401C2062381EA7F129
:104E40000107F3DC2046FFF7A8FB032011B043E67F
:104E500010B5436913B1AFF3008001E0FFF7C0FB69
:104E6000012010BD127800F124010A7000224A705E
:104E70000122EDE711684FF0FF32E9E710B5436911
:104E800013B1AFF3008001E0FFF766FC012010BD15
:104E9000128800F1240182840022C2840122EDE7FD
:104EA00011684FF0FF32E9E770B516460C4605462B
:104EB000FFF774FD036893F80101012806D0FF2C69
:104EC0000FD8185D68B101202C7070BDD3F80701B0
:104ED0003246214603F2071303442846BDE87040DA
:104EE00018474FF0FF3070BD70477546FFF752FD11
:104EF000AE4605006946534620F00700854618B0C7
:104F000020B5FFF705FABDE820404FF000064FF04E
:104F100000074FF000084FF0000B21F00701AC46EE
:104F2000ACE8C009ACE8C009ACE8C009ACE8C0090D
:104F30008D46704700487047F80400202DE9F04185
:104F40001F46044603260168072A01F4006004DBBB
:104F500008B116A505E016A503E008B115A500E007
:104F600015A521F010002060A069C01EA0610FB13E
:104F7000401EA0612046FFF7FAFA4FB1D4E90121A3
:104F800038469047206A401C2062C01C206206E020
:104F9000206AFAE7D4E9012115F8010B9047761E43
:104FA000F8D22046FFF7F9FABDE8F0814E414E00F5
:104FB0006E616E00494E4600696E66002DE9F0474D
:104FC000814616468AB0334878440DC88DE80D00F6
:104FD00030487844801C03AC0DC884E80D0041F6CD
:104FE0009B300844372190FBF1F290FBF1F5A5F1DD
:104FF000800501FB12041B3C02D56442012000E045
:105000000020DFF890A080460027FA44AAF1BE0AEB
:105010000DE0E00709D03246684607EB47010AEB8E
:10502000810100F00AFB8DE8070064107F1C002C52
:10503000EFD1184F7F44AC3F18E0E80714D007EBDE
:1050400004100DF1180A90E80E008AE80E00C068FE
:10505000F04201D198190890324606A903A800F041
:10506000ECFA03AB83E807006D10641C002DE4D15B
:1050700032466946B8F1000F03A802D000F0C9FA21
:1050800001E000F0DAFAC9E90001C9F808200AB025
:10509000BDE8F087541A00000446AFF300802046B4
:1050A000FFF7E3F801491820ABBEFEE72600020037
:1050B0004FF0013C50F8042B51F8043B9A4221D1A7
:1050C000A2EB0C03934313EACC1317D150F8042B33
:1050D00051F8043B9A4215D1A2EB0C03934313EA17
:1050E000CC130BD150F8042B51F8043B9A4209D150
:1050F000A2EB0C03934313EACC13DBD04FF0000078
:10510000704700BFD01A01BAB1FA81F101F018015D
:1051100022FA01F0CB40C1F12001DBB2C0B2C01ACB
:105120002CFA01F3D11A914311EAC311E6D1704769
:105130005FEA400C08BF91F0000F4FEA8C234FEA62
:10514000C12243EA51514FEA1C5018BF00F5F0400C
:105150004FEA300018BF41F000415FEA6C5C00F09C
:105160002980BCF1FF3F08BF40F080407047130C1E
:1051700006BF12044FF0100C4FF0000C130E04BFCA
:1051800012020CF1080C130F04BF12010CF1040CF5
:10519000930F04BF92000CF1020CD30F04BF520016
:1051A0000CF1010C11464FF00002A0F11F00A0EB22
:1051B0000C00704711F0004F08BF704731F00041FC
:1051C0003FF4D5AF0B0C06BF09044FF0100C4FF0A5
:1051D000000C0B0E04BF09020CF1080C0B0F04BFEE
:1051E00009010CF1040C8B0F04BF89000CF1020CB7
:1051F000CB0F04BF49000CF1010CCCF12003A0EB54
:105200000C0022FA03F302FA0CF241EA030100F166
:105210000100704720F07F4C80EA030023F07F47B5
:10522000ACEB070303F57C5300F0004003F1FF03F0
:105230002DE980494FEA154B09B44FEA144325EA9A
:105240000B4E24EA03480FF2042606EB1327490805
:105250003E785FEA320203FB0667C7F5000707FBEB
:1052600006F64FEA54374FEAD64606F1020607FB28
:10527000066CCCF1005C4FEA1C472CEA074C07FB9C
:1052800006F40CFB06F504EB15464FEA961634BF00
:1052900000204FF000404FEAD13706FB07FC4FEAF1
:1052A0001C4C0CFB0BF7D21B03FB0CF761EB07014B
:1052B0000CFB0EF7B0EB074072EB17420CFB08F744
:1052C00034BFA2EB0742B2EB074261EB17414FEA52
:1052D0000C444FEA910706FB07FC4FEA1C4C0CFB01
:1052E0000BF7B0EBC74072EB573203FB0CF734BF40
:1052F000A2EBC742B2EBC74261EB57310CFB0EF792
:10530000B0EBC70072EB57720CFB08F734BFA2EB8F
:10531000C702B2EBC70261EB5771039F4FEA81618D
:1053200041EA921104EBCC044FEAD1374FEA826292
:1053300006FB07FC42EA90124FEA80604FEA1C4CE1
:105340000CFB0BF7D21B03FB0CF761EB07010CFB0B
:105350000EF7B0EB074072EB17420CFB08F734BFB7
:10536000A2EB0742B2EB074261EB17414FEA8C55C3
:105370004FEA910704EB9C2406FB07FC4FEA1C4C08
:105380000CFB0BF7B0EBC74072EB573203FB0CF78B
:1053900034BFA2EBC742B2EBC74261EB57310CFB03
:1053A0000EF7B0EBC70072EB57720CFB08F734BF77
:1053B000A2EBC702B2EBC70261EB577115EB4C25AC
:1053C0004FEA816141EA92114FEA82624FEAD13796
:1053D00042EA901206FB07FC44F100044FEA8060A9
:1053E0004FEA1C4C0CFB0BF7D21B03FB0CF761EBD9
:1053F00007010CFB0EF7B0EB074072EB17420CFBFA
:1054000008F734BFA2EB0742B2EB074261EB17414A
:1054100015EB1C154FEA813141EA92414FEA823285
:1054200042EA90424FEA80304FEA0C7644F10004A1
:1054300048EA03434EEA0B484FF0000EB2EB080C6B
:1054400071EB030724BF624639464EEB0E0E4FF058
:10545000000B0018524149414BEB0B0BB2EB080C0F
:1054600071EB03077BF1000B24BF624639464EEB1C
:105470000E0E4FF0000B0018524149414BEB0B0B45
:10548000B2EB080C71EB03077BF1000B24BF624603
:1054900039464EEB0E0E51EA020718BF46F00106E0
:1054A00016EB0E7655F1000254F1000103D5BDE86C
:1054B0008901BDE80088BDE88901BDE80048B6194A
:1054C000524141EB0101A3F10103704780807F7ECF
:1054D0007D7C7B7A7978777676757473727171706A
:1054E0006F6E6E6D6C6C6B6A6A696868676666651C
:1054F0006464636362616160605F5F5E5E5D5D5CAA
:105500005C5B5B5A5A59595858575756565555551A
:105510005454535352525251515050504F4F4F4E7A
:105520004E4D4D4D4C4C4C4B4B4B4A4A4A494949C8
:10553000484848474747474646464545454444440A
:10554000444343434342424242414141002B26D41B
:10555000770021D01CB54FEA370703B44FF0100095
:105560004FF010014FF000000FBCBDE810400BF1F0
:10557000010BBBF1010F08BF5FEA170722BF12F151
:10558000010211F101014FF0004143F1000300F06D
:10559000004043EA00007047F9D35708DAE746EACB
:1055A000064613F1400F4FEA16461FDD13F1200F98
:1055B000DFBF16430A46002120335B42C8D0C3F147
:1055C000200746EA064602FA07F74FEA164646EA79
:1055D0000706C3F1200722FA03F201FA07F721FABE
:1055E00003F14FF0000342EA0702B1E746EA020680
:1055F00046EA06464FEA164646EA0106BCBF46EAB8
:105600000646360C4FF000034FF000024FF0000149
:105610009EE72DE9C048934630B491E8380007C8AA
:1056200031EA400C48BF34EA430C03D5FFF7F2FDE2
:10563000FFF78CFFF0BCBDE800882DE9C048934619
:1056400030B491E8380007C810F0804F08BF13F05D
:10565000804F03D100F005F8FFF778FFF0BCBDE8FC
:10566000008820F07F4780EA030023F07F4C07EB9F
:105670000C03A3F57C5300F00040A3F1FE0392F06D
:10568000000F00F0B38095F0000F00F077802DE957
:1056900001494FEA11404FEA144621EA004800FB55
:1056A00006FC24EA064708FB06F607FB08F800FBA1
:1056B00007F718EB06484CEB164C4FEA124B18EB69
:1056C00007484FEA15464CEB174022EA0B4E0BFBFE
:1056D00006FC25EA06470EFB06F607FB0EFE0BFB53
:1056E00007F71EEB064E4CEB164C4FF000061EEB78
:1056F000074E4CEB174B18EB0B0840F1000018EB72
:105700000E0B58EB000840F100008F1A4FF000011B
:105710003CBFC943661B14BFB5EB040C00213CBF62
:10572000C943F61B4FEA17444EEA8E0E27EA04459A
:105730004FEA1C4704FB07622CEA074C05FB07F7FE
:105740000CFB05F604FB0CFC16EB074642EB17427C
:1057500016EB0C4642EB1C421BEB060658EB020212
:10576000414146EA9E0601D5BDE80189B61952417C
:1057700041EB0101A3F10103BDE801894FEA1445A2
:105780004FEA114724EA054621EA074C05FB07F4D6
:1057900006FB07F70CFB06F105FB0CFC11EB0741C0
:1057A00044EB17444FEA124711EB0C4144EB1C4405
:1057B00022EA074C05FB07F206FB07F70CFB06F68F
:1057C00005FB0CFC16EB074642EB174216EB0C46AA
:1057D00042EB1C456A1854F1000148BF7047B619E6
:1057E000524141EB0101A3F10103704795F0000F15
:1057F00037D04FEA11424FEA144721EA024624EA21
:10580000074C02FB07F106FB07F70CFB06F402FB53
:105810000CFC14EB074441EB17414FEA154714EB1E
:105820000C4441EB1C4125EA074C02FB07F506FB43
:1058300007F70CFB06F602FB0CFC16EB074645EBE4
:10584000174516EB0C4645EB1C42121951F10001AD
:1058500048BF7047B619524141EB0101A3F1010362
:1058600070474FEA14454FEA114724EA054621EAFA
:10587000074C05FB07F106FB07F70CFB06F24FF0A0
:10588000000605FB0CFC12EB074241EB174112EB43
:105890000C4251EB1C4148BF7047921841EB01018B
:1058A000A3F101037047000002A1114800F0F8FEC7
:1058B00000BFFEE70D0A2A2A2A2A2A2A2A2A2A2A89
:1058C0002A2A2A2A2A2A2A2A2A4275734661756CAC
:1058D000745F48616E646C65722A2A2A2A2A2A2A11
:1058E0002A2A2A2A2A2A2A2A2A2A2A2A0D0A0000A9
:1058F000003801407047000008B9012100E0002194
:105900000D4A12684243B2F1807F01D3012200E0C8
:105910000022114301B170470749096841434FF024
:10592000E0225161002191611146096941F00301B2
:10593000116100BFEFE700001C0000204FF0E020E5
:10594000006960F004004FF0E0210861084600693A
:1059500006490860092006490870084600784FF497
:105960007A71484303490860704700002000002016
:10597000180000201C00002070470000054909683D
:1059800021F01001034A11601146096801431160BA
:10599000704700000020024001460020034A1068C2
:1059A00000F03800084310607047000000200240FB
:1059B0002DE9F041024600250026002000230024A6
:1059C000002791F803C00CF00F0591F803C00CF00C
:1059D000100CBCF1000F03D091F802C04CEA050591
:1059E00091F800C0BCF1000F31D0146800202BE00A
:1059F0004FF0010C0CFA00F3B1F800C00CEA0306FA
:105A00009E4220D183004FF00F0C0CFA03F7BC43E9
:105A100005FA03FC4CEA040491F803C0BCF1280F1A
:105A200006D14FF0010C0CFA00FCC2F814C00AE0D9
:105A300091F803C0BCF1480F05D14FF0010C0CFAEE
:105A400000FCC2F810C0401C0828D1D31460B1F883
:105A500000C0BCF1FF0F34DD546800202EE000F1DF
:105A6000080C4FF0010808FA0CF3B1F800C00CEA7A
:105A700003069E4221D183004FF00F0C0CFA03F76E
:105A8000BC4305FA03FC4CEA040491F803C0BCF1E2
:105A9000280F05D100F1080C08FA0CF8C2F81480A0
:105AA00091F803C0BCF1480F07D100F1080C4FF08A
:105AB000010808FA0CF8C2F81080401C0828CED360
:105AC0005460BDE8F0810AB1016100E041617047B6
:105AD00002A1114800F0E4FD00BFFEE70D0A2A2AEA
:105AE0002A2A2A2A2A2A2A2A2A2A2A2A2A2A2A2A16
:105AF0002A486172644661756C745F48616E646CBB
:105B000065722A2A2A2A2A2A2A2A2A2A2A2A2A2A72
:105B10002A2A2A2A2A0D0A000038014010B54FF41B
:105B2000A06000F00FF900F05BF9FFF707FF4FF4FA
:105B3000E13000F007FD4FF4E13000F05BFD00F0D4
:105B400061F810BD10B50446012C01D0012000E021
:105B50000020024680210548FFF7B5FF0CB1012067
:105B600000E000200249087010BD0000001C014048
:105B70002400002010B50446012C01D0012000E0D3
:105B8000002002464FF480710448FFF79CFF0CB1DF
:105B9000012000E000200249487010BD00100140C3
:105BA0002400002010B50446012C01D0012000E0A3
:105BB000002002464FF480510448FFF784FF0CB1E7
:105BC000012000E000200249887010BD000801405B
:105BD0002400002010B50446012C01D0012000E073
:105BE000002002464FF480610448FFF76CFF0CB1BF
:105BF000012000E000200249C87010BD00100140E3
:105C00002400002008B50121902000F0D9F81020D0
:105C10008DF803004FF4F860ADF8000003208DF814
:105C2000020069461548FFF7C3FE4FF48050ADF8F7
:105C3000000069461248FFF7BBFE012240210F48D1
:105C4000FFF741FF012280210C48FFF73CFF0122B2
:105C500011020A48FFF737FF012251020748FFF7F8
:105C600032FF0020FFF76EFF0020FFF783FF0020C8
:105C7000FFF798FF0020FFF7ADFF08BD001C0140B3
:105C80000008014002A1114800F00AFD00BFFEE734
:105C90000D0A2A2A2A2A2A2A2A2A2A2A2A2A2A2AA1
:105CA0002A2A2A2A2A4D656D4D616E6167655F4813
:105CB000616E646C65722A2A2A2A2A2A2A2A2A2ACA
:105CC0002A2A2A2A2A2A2A2A2A0D0A0000380140CA
:105CD0007047000070B5002100230F22C47804B380
:105CE000154C246804F4E064C4F5E064210AC1F1B1
:105CF0000403CA40447804FA03F184781440214331
:105D000009010E4C0678A155047804F01F05012402
:105D1000AC4005786D11AD0005F1E025C5F80041F6
:105D200009E0047804F01F050124AC40044D067816
:105D3000761145F8264070BD0CED00E000E400E06F
:105D400080E100E002490143024A1160704700000F
:105D50000000FA050CED00E010B5002807DA0A078C
:105D6000140E054A00F00F031B1FD45403E00A076A
:105D7000130E024A135410BD18ED00E000E400E0D9
:105D800029B1064A52690243044B5A6104E0034AAE
:105D900052698243014B5A61704700000010024073
:105DA00029B1064AD2690243044BDA6104E0034A8E
:105DB000D2698243014BDA61704700000010024053
:105DC00029B1064A92690243044B9A6104E0034AEE
:105DD00092698243014B9A617047000000100240B3
:105DE00010B500F041F84FF4803000F0FFF800F0FB
:105DF0005BF90446012C25D11020FFF7BFFD0220DE
:105E0000FFF7CAFD4FF4E011200400F033F9012040
:105E100000F02AF900BF392000F0B6F80028FAD0C7
:105E2000022000F035F900BF00F0CCF80828FBD1C3
:105E3000002000F0CFF84FF4806000F0FDF8002063
:105E400000F006F901210846FFF79AFF012144F20C
:105E50009C20FFF7B5FF01214804FFF7A1FF0121B6
:105E60000846FFF7ADFF10BD0F48006840F0010085
:105E70000D490860084640680C4908400A494860D6
:105E8000084600680A490840074908600846006853
:105E900020F4802008600846406820F4FE00486036
:105EA0004FF41F0088607047001002400000FFF8A8
:105EB000FFFFF6FE30B500210022002400232D4D07
:105EC0006D6805F00C0121B1042905D0082923D102
:105ED00005E0294D056022E0274D05601FE0254DB6
:105EE0006D6805F47012234D6D6805F48034022549
:105EF00005EB92421CB9214D554305600BE01D4D49
:105F00006D6805F400351DB11C4D5543056002E078
:105F1000194D5543056002E0174D056000BF00BFF5
:105F2000144D6D6805F0F0010909154D6B5C0568AD
:105F3000DD4045600F4D6D6805F4E061090A104DC4
:105F40006B5C4568DD4085600A4D6D6805F4605105
:105F5000C90A0B4D6B5C4568DD40C560054D6D6839
:105F600005F44041890B074D6B5CC568B5FBF3F543
:105F7000056130BD0010024000127A0000093D00AA
:105F8000000000201000002010B501460022002370
:105F900000204A11012A02D1094C236806E0022A96
:105FA00002D1074C236A01E0054C636A01F01F022D
:105FB000012494401C400CB1012000E0002010BDE1
:105FC000001002400248406800F00C0070470000DA
:105FD0000010024001460020034A506820F0F00003
:105FE00008435060704700000010024011490968E2
:105FF00021F480310F4A11601146096821F4802193
:106000001160B0F5803F03D0B0F5802F0ED106E0CF
:106010000849096841F48031064A116007E00549E2
:10602000096841F4A021034A116000E000BF00BFED
:10603000704700000010024001460020034A5068EB
:1060400020F4E060084350607047000000100240F8
:1060500001460020034A506820F4605040EAC10025
:106060005060704700100240014908667047000008
:106070000000424202460020044B586820F47C1085
:1060800042EA01031843014B586070470010024078
:1060900001460020034A506820F003000843506086
:1060A000704700000010024038B500200090002426
:1060B000002500BF3120FFF767FF05460098401C10
:1060C00000900098B0F5A06F01D0002DF2D03120E3
:1060D000FFF75AFF08B1012400E00024204638BD34
:1060E0007047826912F8021C21B1012907D00229E8
:1060F0000ED109E0D0E900231A44026009E0D0E99A
:106100000023D21A026004E00268521C026000E020
:1061100000BF00BF704710B500F002F810BD0000CE
:106120000CB50020019000903348006840F48030A6
:106130003149086000BF3048006800F4003000902A
:106140000198401C0190009818B90198B0F5A06F13
:10615000F1D12948006800F4003010B1012000900E
:1061600001E0002000900098012843D123480068F6
:1061700040F01000214908600846006820F0030044
:1061800008600846006840F0020008601A4840684D
:10619000194948600846406848600846406840F42D
:1061A000806048600846406820F47C1048600846DB
:1061B000406840F4881048600846006840F08070ED
:1061C000086000BF0C48006800F000700028F9D09B
:1061D0000948406820F003000749486008464068C5
:1061E00040F00200486000BF0348406800F00C0027
:1061F0000828F9D10CBD0000001002400020024028
:1062000015480068401C144908601448006830B103
:10621000012808D002280AD0032810D10BE0012061
:106220000F4908600FE002200D4908600BE00320D1
:106230000B49086007E000200949086003E00020DE
:106240000649086000BF00BF0648006840F0805063
:106250000449086070470000140000202C00002052
:106260003000002004ED00E010B51248006840F056
:10627000010010490860084640680F4908400D4970
:106280004860084600680D4908400A490860084609
:10629000006820F4802008600846406820F4FE0072
:1062A00048604FF41F008860FFF735FF0448054938
:1062B000086010BD001002400000FFF8FFFFF6FE6E
:1062C0000040000808ED00E010B540F225510448F8
:1062D00000F050F818B12021014800F029F810BD55
:1062E0000038014010B540F225510E4800F042F848
:1062F000B0B10D480088802802D300200A490880E8
:106300000848001D0088C1B2074802880088401C68
:10631000054B1880054881542021024800F008F8F8
:1063200010BD000000440040400000205804002040
:1063300001F40072B2F5007F00D100BFCA430280B1
:10634000704721B1828942F40052828104E082893F
:106350004DF6FF731A408281704702460020B1F566
:10636000007F00D100BF13880B400BB1012000E07B
:106370000020704770B5024600240023002500204D
:1063800040F66A16B14200D100BFC1F3421501F0D8
:106390001F03012606FA03F3012D02D1968933402B
:1063A00006E0022D02D1168A334001E0968A33407E
:1063B0000C12012606FA04F41688344013B10CB10D
:1063C000012000E0002070BDF0B503460024002647
:1063D0000025002040F66A17B94200D100BF1846D8
:1063E000C1F3421401F01F06012707FA06F5012C3C
:1063F00001D10C3004E0022C01D1103000E0143047
:106400001AB107682F43076002E00768AF430760CF
:10641000F0BD00002DE9F04786B005460E46002489
:10642000A24600BFA1460027B08900B100BF2F4699
:106430002C8A4CF6FF700440F08804432C82AC890F
:106440004EF6F3100440B08831890843718908433F
:106450000443AC81AC8A4FF6FF400440B08904434A
:10646000AC8201A8FFF726FD1F48874202D1DDF864
:1064700010A001E0DDF80CA0A88900F4004040B1B4
:106480000AEBCA0000EB0A1031684900B0FBF1F8D2
:1064900007E00AEBCA0000EB0A1031688900B0FB84
:1064A000F1F86420B8FBF0F004012009642101FB3D
:1064B0001089A88900F4004040B1322000EBC900E7
:1064C000B0FBF1F000F00700044308E0322000EBDD
:1064D00009106421B0FBF1F000F00F0004432C819F
:1064E00006B0BDE8F087000000380140C1F30802A3
:1064F0008280704702A1124800F0D2F800BFFEE788
:106500000D0A2A2A2A2A2A2A2A2A2A2A2A2A2A2A28
:106510002A2A2A2A2A55736167654661756C745F59
:1065200048616E646C65722A2A2A2A2A2A2A2A2A33
:106530002A2A2A2A2A2A2A2A2A2A0D0A00000000A0
:106540000038014010B586B0044601210420FFF751
:1065500037FC01218803FFF733FC18208DF8170062
:106560004FF40070ADF8140003208DF8160005A953
:106570001E48FFF71DFA04208DF817000002ADF841
:10658000140003208DF8160005A91848FFF710FA2B
:1065900001940020ADF810000C20ADF80E00002092
:1065A000ADF80C00ADF80A00ADF8080001A91048DC
:1065B000FFF730FF01210E48FFF7C3FE012240F232
:1065C00025510B48FFF700FF25208DF80000012022
:1065D0008DF8030000208DF8010002208DF80200E4
:1065E0006846FFF777FB06B010BD000000080140C9
:1065F0000038014010B586B0044601210420FFF7A1
:10660000DFFB01214804FFF7CBFB18208DF81700B2
:106610000420ADF8140003208DF8160005A91E48CB
:10662000FFF7C6F904208DF817000820ADF8140014
:1066300003208DF8160005A91748FFF7B9F9019452
:106640000020ADF810000C20ADF80E000020ADF8D1
:106650000C00ADF80A00ADF8080001A90F48FFF7DB
:10666000D9FE01210D48FFF76CFE012240F22551B1
:106670000A48FFF7A9FE26208DF8000001208DF8BA
:10668000030000208DF801008DF802006846FFF736
:1066900021FB06B010BD000000080140004400408E
:1066A0000FB430B5CBB0054601AC50A800904FF404
:1066B000947101A8009B4F9AFDF73CFE00200090CA
:1066C0000BE014F8011B2846FFF710FF00BF402124
:1066D0002846FFF742FE0028F9D020780028F0D1A4
:1066E0004BB030BC5DF814FB490050EAC12018BF24
:1066F00004204A0D18BF40F0010040F2FF72B2EBD7
:10670000515F08BF40F00200012808BF0520704714
:1067100030380A2801D2012070470020704700005D
:1067200000BF00BF00BFFFF7F9F96420FFF7E4F8EE
:10673000FF216FF00100FFF70FFBFE216FF0040057
:10674000FFF70AFB05202C49086008202B49086048
:10675000084601682848006800DF29490860274882
:1067600001682548006801DF254908602248006863
:1067700002DF234908602348234908602348096849
:1067800088634FF0807020490968C86320481E491B
:1067900048602048496888634FF080701A4949680A
:1067A000C8631D48184988601C48896888634FF091
:1067B000807015498968C86319481349C860194829
:1067C000C96888634FF080700F49C968C8630120A9
:1067D000154908600C49144A126851F8221001F159
:1067E0004000FDF74CFD032080F3148800BFBFF389
:1067F000608F00F035F800003400002038000020E1
:106800003C00002008010020480400202D680008FA
:10681000080200206168000808030020956800084D
:1068200008040020CD6800082C00002013E00A486E
:1068300000681421B0FBF1F201FB12000A2805D90F
:10684000012240210548FFF73EF904E000224021E3
:106850000248FFF738F9EAE714000020001C014065
:1068600013E00A4800681421B0FBF1F201FB1200AA
:106870000A2805D9012280210548FFF724F904E000
:10688000002280210248FFF71EF9EAE714000020E9
:10689000001C014014E00B4800681421B0FBF1F229
:1068A00001FB12000A2805D9012211020648FFF750
:1068B0000AF905E000224FF480710348FFF703F95D
:1068C000E9E7000014000020001C014014E00B4820
:1068D00000681421B0FBF1F201FB12000A2805D96F
:1068E000012251020648FFF7EEF805E000224FF4BE
:1068F00000710348FFF7E7F8E9E700001400002003
:10690000001C014010B500290AD00878002807D0E3
:1069100005487844FEF7CCFB002801D0002010BDCC
:106920000248784410BD0000460100003E0100000E
:1069300010B500290AD00878002807D00548784407
:10694000FEF7B6FB002801D0002010BD02487844B5
:1069500010BD00002A02000022020000FEF742B92A
:106960000400000800000000000000020001000018
:106970001000000000000000000000003031323341
:106980003435363738394142434445464030580063
:106990003031323334353637383961626364656695
:1069A0004030780002400000000000A0000000001D
:1069B00005400000000000C8000000000C4000007E
:1069C0000000409C00000000194000000020BCBEF8
:1069D0000000000034400000BFC91B8E000000040E
:1069E000B5400000504BCFD06607E2CF0100000059
:1069F0006C4100003E8251AADFEEA7340100000086
:106A0000D9420000DCB5A0E23A301F97FFFFFFFF3C
:106A1000B4450000FD25A0C8E9A3C14FFFFFFFFF5B
:106A2000FF3F00000000008000000000FF3F00006A
:106A30000000008000000000846B000800000020BF
:106A4000440000006C410008C86B000844000020AE
:106A5000F40C000088410008100100004300000011
:106A6000F8FFFFFF0040404040404040404041416F
:106A70004141414040404040404040404040404013
:106A800040404040400502020202020202020202AD
:106A900002020202022020202020202020202002AA
:106AA000020202020202909090909090101010103A
:106AB00010101010101010101010101010101010D6
:106AC000020202020202888888888888080808086A
:106AD0000808080808080808080808080808080836
:106AE000020202024000000000000000000000005E
:106AF0000000000000000000000000000000000096
:106B00000000000000000000000000000000000085
:106B10000000000000000000000000000000000075
:106B20000000000000000000000000000000000065
:106B30000000000000000000000000000000000055
:106B40000000000000000000000000000000000045
:106B50000000000000000000000000000000000035
:106B600000000000000000001C00000043000000C6
:106B7000F8FFFFFF0C0000000E0000000F000000F7
:106B80002E000000000000000102030401020304C3
:106B900006070809020406080000000000000000C3
:106BA00000000000000000000000000000000000E5
:106BB00000000000010000000000000000000000D4
:086BC0000000000000000000CD
:04000005080041317D
:00000001FF
